:020000040800F2
:1000000070060020650100086D0100086F010008FE
:1000100000000000000000000000000000000000E0
:100020000000000000000000000000007101000856
:1000300000000000000000007301000875010008C6
:1000400077010008770100087701000877010008B0
:1000500077010008770100087701000877010008A0
:100060007701000877010008770100087701000890
:100070007701000877010008770100087701000880
:100080007701000877010008770100087701000870
:100090007701000877010008770100087701000860
:1000A000770100087701000877010008990200082D
:1000B0007701000877010008770100087701000840
:1000C00000F002F800F03EF80CA030C80838241800
:1000D0002D18671EA246AB4654465D46AC4201D180
:1000E00000F030F87E460F3EB6460FCC0126334274
:1000F00000D0FB1A3343A246AB461847380600002F
:1001000058060000103A02D378C878C1FAD85207CE
:1001100001D330C830C101D504680C6070470000BD
:100120000023002400250026103A01D378C1FBD813
:10013000520700D330C100D50B6070471FB51FBDFB
:1001400010B510BD00F02DF81146FFF7F7FF00F0D5
:1001500071F900F045F803B4FFF7F2FF03BC00F0BB
:100160004BF800000748804707480047FEE7FEE7D6
:10017000FEE7FEE7FEE7FEE704480549054A064BB1
:100180007047000095020008C100000870000020C0
:100190007006002070020020700200207047704737
:1001A0007047754600F024F8AE4605006946534690
:1001B000C008C000854618B020B5FFF7DDFF60BC61
:1001C000B64600260027C0C5C0C5C0C5C0C5C0C54D
:1001D000C0C5C0C5C0C5403D490849008D467047EF
:1001E00010B50446C046C0462046FFF7B4FF10BD18
:1001F000004870470800002001491820ABBEFEE708
:100200002600020070470000B0B501208103A84A13
:1002100053680B435360410413680B43136005217B
:10022000CA041A490B460C3B1C6814431C6011227B
:1002300012018B6913438B6142020B46083B1C6819
:1002400094431C60032293040C689C430C600C1FB5
:1002500025681D43256012050B6893430B6002055A
:100260000B6813430B600A490A6882430A604522FF
:10027000CA600C220A600A68602313430B600022E4
:100280004A608A600A6802430A60B0BD0C000048F8
:100290000038014070470000A7480168890600D473
:1002A00056E00189C9B25A2920DD5B39232900D9DA
:1002B0004BE0C0467944097949008F4411464646CF
:1002C000464646464646234646462946464646460E
:1002D000464646462F4646464646464646464635E6
:1002E0001E490A78012A33D1022230E01B2923D08B
:1002F000312924D0352928D118490A78032A27D151
:10030000042224E0154900220A70464903221EE017
:10031000124900220A704349022218E00F490022C4
:100320000A704049042212E00C490A78042A0FD1CD
:100330003C4A0123137009E00849012207E00749FC
:100340000A78022A04D1032201E0044900220A703B
:100350000168490601D54021416070476D000020C9
:10036000F0B581B058480068009056480568544878
:100370000668714F2B4C2078022802D0012812D138
:1003800041E038680006FCD56E20B8813868000668
:10039000FCD53D20B88138680006FCD5304600F019
:1003A00095F8002020702078032816D138680006C0
:1003B000FCD54120B88138680006FCD56E20B88194
:1003C00038680006FCD53D20B88138680006FCD5A9
:1003D000284600F07BF80020207020780428CAD13D
:1003E00038680006FCD57320B88138680006FCD553
:1003F0003D20B88138680006FCD5009800F066F80A
:1004000000202070B7E70020207038680006FCD577
:100410000D20B88138680006FCD50A20B88101B0EB
:10042000F0BDC0466C000020012A00D111464843AF
:100430007047000082B0EFF3108072B60124A00470
:100440001B490A6802430A601A4801681A4A0A43AB
:1004500002600F21090602688A4302602102426994
:100460000A434261FFF7D0FE0194E00613490A688F
:1004700002430A6062B6124E124F134D019C02E015
:10048000641C0F2CFAD0346038680421C94322461A
:10049000FFF7CAFF38602968012C00D04018286097
:1004A000FFF75EFF0E2CEBD1072028603860E7E7EE
:1004B00014100240000400480100010000E100E0C7
:1004C00068000020000000200400002070B50446F1
:1004D000194E002802D4002C08D122E03068000612
:1004E000FCD52D20B0816442002C1AD00A2503E0EF
:1004F0000A204543002C14D0AC42F9DC30680006D9
:10050000FCD50A21284600F03BF80546204629463E
:1005100000F036F8294641433030B081641A002C8F
:10052000EAD130680006FCD50D20B08130680006A5
:10053000FCD50A20B08170BD1C38014043088B42B5
:100540001AD3002203098B4279D3030A8B425ED36C
:10055000030B8B4242D3030C8B4227D30902FF22A9
:1005600012BA030C8B4202D31212090203D0030BFE
:100570008B4233D31AE0D3E0411A8041401C7047CC
:1005800003460B4371D443088B42F5D30022030981
:100590008B4254D3030A8B4239D3030B8B421DD3B6
:1005A000030C8B4202D394466EE0090AC30B8B42C4
:1005B00001D3CB03C01A5241830B8B4201D38B036F
:1005C000C01A5241430B8B4201D34B03C01A524114
:1005D000030B8B4201D30B03C01A5241C30A8B4257
:1005E00001D3CB02C01A5241830A8B4201D38B0242
:1005F000C01A5241430A8B4201D34B02C01A5241E6
:10060000030A8B4201D30B02C01A5241CDD2C30957
:100610008B4201D3CB01C01A524183098B4201D3D3
:100620008B01C01A524143098B4201D34B01C01ABE
:10063000524103098B4201D30B01C01A5241C30836
:100640008B4201D3CB00C01A524183088B4201D3A5
:100650008B00C01A524143088B4201D34B00C01A91
:100660005241411A524110007047CA0F00D049420E
:10067000031000D34042534000229C4603098B42A2
:100680002DD3030A8B4212D38901FC2212BA030A2A
:100690008B420CD3890192118B4208D389019211AC
:1006A0008B4204D3890137D0921100E08909C30934
:1006B0008B4201D3CB01C01A524183098B4201D333
:1006C0008B01C01A524143098B4201D34B01C01A1E
:1006D000524103098B4201D30B01C01A5241C30896
:1006E0008B4201D3CB00C01A524183088B4201D305
:1006F0008B00C01A5241D9D243088B4201D34B0020
:10070000C01A5241411A00D2014652411046634676
:100710005B1000D34042704763465B1000D34042F9
:1007200001B50021004201D0C9430846C046C04679
:1007300002BD00005407000800000020080000006F
:10074000040100085C07000808000020680600009B
:0C07500020010008070000000700000066
:040000050800016589
:00000001FF
