:020000040800F2
:10000000680600204901000851010008530100085A
:1000100000000000000000000000000000000000E0
:100020000000000000000000000000005501000872
:1000300000000000000000005701000859010008FE
:100040005B0100085B0100085B0100085B01000820
:100050005B0100085B0100085B0100085B01000810
:100060005B0100085B0100085B0100085B01000800
:100070005B0100085B0100085B0100085B010008F0
:100080005B010008510200085B0100085B010008E9
:100090005B0100085B0100085B0100085B010008D0
:1000A0005B0100085B0100085B0100085B010008C0
:1000B0005B0100085B0100085B0100085B010008B0
:1000C00000F002F800F030F80CA030C8083824180E
:1000D0002D18671EA246AB4654465D46AC4201D180
:1000E00000F022F87E460F3EB6460FCC0126334282
:1000F00000D0FB1A3343A246AB461847B8010000B4
:10010000C80100000023002400250026103A01D376
:1001100078C1FBD8520700D330C100D50B607047BF
:100120001FB51FBD10B510BD00F02DF81146FFF72B
:10013000F7FF00F0A7F800F045F803B4FFF7F2FF6F
:1001400003BC00F04BF80000074880470748004711
:10015000FEE7FEE7FEE7FEE7FEE7FEE704480549A7
:10016000054A064B704700004D020008C100000818
:100170006800002068060020680200206802002055
:10018000704770477047754600F024F8AE4605008A
:1001900069465346C008C000854618B020B5FFF731
:1001A000DDFF60BCB64600260027C0C5C0C5C0C57F
:1001B000C0C5C0C5C0C5C0C5C0C5403D490849008F
:1001C0008D46704710B50446C046C0462046FFF72E
:1001D000B4FF10BD004870470000002001491820FE
:1001E000ABBEFEE72600020070470000012081043C
:1001F000094A13680B43136008490A68084B134304
:100200000B600F2212060B6893430B6000024A69D1
:1002100002434A617047C04614100240000400487F
:100220000100010006481021016006480649C1612D
:100230007D210162016801220A4302607047C046C5
:100240001C1002400C1000403F1F000070470000CF
:1002500010B5094801688904890F7D228A40074941
:10026000CA6101228261064B1C78544084601C7074
:100270000020086010BDC046100400481010004067
:1002800060000020EFF3108072B6FFF7AFFFFFF7BA
:10029000C9FF01204104054A13680B43136062B68D
:1002A00003490A6802430A60FEE7C04600E100E035
:1002B00000100040C4020008000000206806000092
:0402C000040100082D
:0400000508000149A5
:00000001FF
