:020000040800F2
:1000000018070020650100086D0100086F01000855
:1000100000000000000000000000000000000000E0
:100020000000000000000000000000007101000856
:1000300000000000000000007301000875010008C6
:1000400077010008770100087701000877010008B0
:1000500077010008770100087701000877010008A0
:100060007701000877010008770100087701000890
:100070007701000877010008770100087701000880
:100080007701000877010008770100087701000870
:100090007701000877010008770100087701000860
:1000A000770100087701000877010008C102000805
:1000B0007701000877010008770100087701000840
:1000C00000F002F800F03EF80CA030C80838241800
:1000D0002D18671EA246AB4654465D46AC4201D180
:1000E00000F030F87E460F3EB6460FCC0126334274
:1000F00000D0FB1A3343A246AB461847D005000098
:10010000F0050000103A02D378C878C1FAD8520737
:1001100001D330C830C101D504680C6070470000BD
:100120000023002400250026103A01D378C1FBD813
:10013000520700D330C100D50B6070471FB51FBDFB
:1001400010B510BD00F02DF81146FFF7F7FF00F0D5
:100150002BFA00F045F803B4FFF7F2FF03BC00F000
:100160004BF800000748804707480047FEE7FEE7D6
:10017000FEE7FEE7FEE7FEE704480549054A064BB1
:1001800070470000BD020008C100000818010020EF
:10019000180700201803002018030020704770473C
:1001A0007047754600F024F8AE4605006946534690
:1001B000C008C000854618B020B5FFF7DDFF60BC61
:1001C000B64600260027C0C5C0C5C0C5C0C5C0C54D
:1001D000C0C5C0C5C0C5403D490849008D467047EF
:1001E00010B50446C046C0462046FFF7B4FF10BD18
:1001F00000487047A800002001491820ABBEFEE768
:100200002600020070470000B0B5224801680122B4
:1002100093031943016020480168530419430160A6
:100220000920C00601680523DB04194301601B484F
:10023000016811231B011943016019480168530229
:10024000994301601748016803239C04A14301609E
:1002500015490D6825430D6001681B059943016030
:10026000016813051943016010480168914301605A
:100270000F4945230B600C2101600168602319437D
:1002800001600C4900230B600B490B6001681143AE
:100290000160B0BD18100240141002402400004854
:1002A000040000480C0000480800004800380140E5
:1002B0000C38014004380140083801407047000004
:1002C00086B0A74800688006002800D43BE1A54816
:1002D000008805A9087008780D2800D0EAE0A24837
:1002E000007840B200283DD0FFE7A24805210180F8
:1002F00000200490FFE7049805280ADCFFE7049833
:100300004000DA4900220A52FFE70498401C04909A
:10031000F1E7FFE79448007840B2012821DBFFE7CE
:100320009448008840009249085A8F49097849B298
:100330000622511A4900CD4A5052FFE7884800680A
:100340000006002801D4FFE7F8E788487F210180F4
:1003500088480188491E018083480178491E017040
:10036000D8E7FFE7FFE77E4800680006002801D4D1
:10037000FFE7F8E77D481B210180FFE77848006828
:100380000006002801D4FFE7F8E778485B210180E8
:10039000FFE7734800680006002801D4FFE7F8E78C
:1003A000724841210180704800210170714801802C
:1003B000FFE76B4800680006002801D4FFE7F8E774
:1003C0006A480D21018000200390FFE7039825284B
:1003D00013DCFFE7FFE7624800680006002801D44D
:1003E000FFE7F8E7039840006549085A5F4908802D
:1003F000FFE70398401C0390E8E700200290FFE726
:100400000298052814DCFFE7FFE75548006800065E
:10041000002801D4FFE7F8E7029840009349085A02
:10042000303052490880FFE70298401C0290E7E70D
:10043000FFE74B4800680006002801D4FFE7F8E713
:100440004A480A210180FFE7454800680006002865
:1004500001D4FFE7F8E745480D2101800020019015
:10046000FFE70198252813DCFFE7FFE73C48006819
:100470000006002801D4FFE7F8E7019840003F4953
:10048000085A3A490880FFE70198401C0190E8E7C4
:1004900000200090FFE7009805280ADCFFE700989D
:1004A0004000334900220A52FFE70098401C0090A8
:1004B000F1E747E005A800787F2817D1FFE72A4831
:1004C000007840B2012811DBFFE7FFE7244800680D
:1004D0000006002801D4FFE7F8E705A800782349C3
:1004E000088021480178491E01702AE005A800789B
:1004F000302825DBFFE705A80078392820DCFFE756
:100500001948007840B205281ADCFFE7FFE71448D5
:1005100000680006002801D4FFE7F8E705A8017885
:10052000124A1180007830380F490A7852B20523F8
:100530009A1A52000E4B98520878401C0870FFE738
:10054000FFE7FFE7FFE7064800684006002804D5FC
:10055000FFE7094840210160FFE706B07047C04649
:100560001C3801402438014008010020283801408F
:100570000A010020A200002020380140580000207D
:100580000000002082B0019000200090FFE700985A
:100590000199884205D2FFE7FFE70098401C0090D0
:1005A000F5E702B07047000080B58AB000200890DF
:1005B000EFF3108072B60990264801680122930477
:1005C0001943016024480168244B19430160244801
:1005D00001681302194301600492FFF715FE2148D8
:1005E0000168049AD3061943016062B6FFE7002050
:1005F0000790052106910590FFE70698002817D47B
:10060000FFE7069840001949085A05990A22039005
:10061000104600F02DF803994843079908180790F1
:10062000FFE70698401E06900598401C0590E4E7F9
:100630000D4801210160079A029010460191FFF7D1
:10064000A1FF01980104029A11600798FFF79AFF31
:10065000CDE7C0461410024000040048010001002C
:100660001404004800E100E0180400484C00002099
:1006700080B584B0029001910198002803D1FFE772
:10068000012003901EE00198012803D1FFE70298A2
:10069000039017E001A80078C007002808D1FFE701
:1006A0000298404301994908FFF7E2FF039009E0EF
:1006B0000298404301994908FFF7DAFF0299414344
:1006C0000391FFE7039804B080BD0000EC0600082A
:1006D00000000020A40000000401000890070008AA
:1006E000A80000207006000020010008D000BF0014
:1006F000D000B500D1008000D000B800D000BE000E
:10070000D000B4002000D000BC00D000B800D00061
:10071000B300D000B000D000BD00D000B800D100C0
:100720008F002C002000D000BC00D000BA00D10007
:1007300081003A00200000000000050000000000D9
:1007400000000000D000BD00D000BE00D000B2000C
:10075000D000BE00D000B5002000D000B700D0000F
:10076000BD00D000B000D1008700D000B500D0009F
:10077000BD00D000B800D000B5002C002000D00093
:10078000BC00D000BA00D10081003A002000050072
:040000050800016589
:00000001FF
